{
  "contractName": "Addition",
  "abi": [
    {
      "inputs": [],
      "name": "sum",
      "outputs": [
        {
          "internalType": "int256",
          "name": "",
          "type": "int256"
        }
      ],
      "stateMutability": "view",
      "type": "function"
    },
    {
      "inputs": [
        {
          "internalType": "int256",
          "name": "x",
          "type": "int256"
        },
        {
          "internalType": "int256",
          "name": "y",
          "type": "int256"
        }
      ],
      "name": "add",
      "outputs": [],
      "stateMutability": "nonpayable",
      "type": "function"
    }
  ],
  "bytecode": "0x60806040526000805534801561001457600080fd5b5061022f806100246000396000f3fe608060405234801561001057600080fd5b50600436106100365760003560e01c8063853255cc1461003b578063a5f3c23b14610059575b600080fd5b610043610075565b60405161005091906100aa565b60405180910390f35b610073600480360381019061006e91906100f6565b61007b565b005b60005481565b80826100879190610165565b6000819055505050565b6000819050919050565b6100a481610091565b82525050565b60006020820190506100bf600083018461009b565b92915050565b600080fd5b6100d381610091565b81146100de57600080fd5b50565b6000813590506100f0816100ca565b92915050565b6000806040838503121561010d5761010c6100c5565b5b600061011b858286016100e1565b925050602061012c858286016100e1565b9150509250929050565b7f4e487b7100000000000000000000000000000000000000000000000000000000600052601160045260246000fd5b600061017082610091565b915061017b83610091565b9250817f7fffffffffffffffffffffffffffffffffffffffffffffffffffffffffffffff038313600083121516156101b6576101b5610136565b5b817f80000000000000000000000000000000000000000000000000000000000000000383126000831216156101ee576101ed610136565b5b82820190509291505056fea264697066735822122076c6e74c9b1e4442949707995874abb08f987e007e459c15d8c89e75522bb9fb64736f6c634300080d0033",
  "immutableReferences": {},
  "source": "// SPDX-License-Identifier: MIT\r\npragma solidity >=0.4.21 <0.9.0;\r\n\r\ncontract Addition {\r\n  int public sum = 0;\r\nfunction add (int x, int y) public {\r\n    sum = x + y;\r\n  }\r\n}\r\n",
  "sourcePath": "C:\\Users\\Admin\\Desktop\\truffle\\contracts\\Addition.sol",
  "compiler": {
    "name": "solc",
    "version": "0.8.13+commit.abaa5c0e.Emscripten.clang"
  },
  "schemaVersion": "3.4.16",
  "updatedAt": "2023-12-28T22:35:43.907Z",
  "devdoc": {
    "kind": "dev",
    "methods": {},
    "version": 1
  },
  "userdoc": {
    "kind": "user",
    "methods": {},
    "version": 1
  }
}